:020000040800F2
:100000000018002039050008890500088905000846
:1000100000000000000000000000000000000000E0
:10002000000000000000000000000000890500083A
:1000300000000000000000008905000825050008F8
:100040008905000889050008890500088905000858
:100050008905000889050008890500088905000848
:100060008905000889050008000000000000000064
:100070008905000889050008890500088905000828
:100080008905000889050008890500088905000818
:100090008905000889050008890500088905000808
:1000A00089050008890500088905000889050008F8
:1000B00089050008890500088905000889050008E8
:1000C00010B5064C2378002B07D1054B002B02D02E
:1000D000044800E000BF0123237010BD0000002091
:1000E00000000000D4050008044B10B5002B03D01D
:1000F0000349044800E000BF10BDC04600000000F6
:1001000004000020D4050008002243088B4274D369
:1001100003098B425FD3030A8B4244D3030B8B4208
:1001200028D3030C8B420DD3FF22090212BA030C11
:100130008B4202D31212090265D0030B8B4219D3F2
:1001400000E0090AC30B8B4201D3CB03C01A524112
:10015000830B8B4201D38B03C01A5241430B8B425A
:1001600001D34B03C01A5241030B8B4201D30B0343
:10017000C01A5241C30A8B4201D3CB02C01A52416A
:10018000830A8B4201D38B02C01A5241430A8B422D
:1001900001D34B02C01A5241030A8B4201D30B0216
:1001A000C01A5241CDD2C3098B4201D3CB01C01A30
:1001B000524183098B4201D38B01C01A524143093A
:1001C0008B4201D34B01C01A524103098B4201D328
:1001D0000B01C01A5241C3088B4201D3CB00C01A95
:1001E000524183088B4201D38B00C01A524143080D
:1001F0008B4201D34B00C01A5241411A00D2014632
:10020000524110467047FFE701B5002000F006F8A4
:1002100002BDC0460029F7D076E770477047C04658
:1002200080B500AF00F058F9002000F07DF800F034
:1002300001F8FCE780B500AF00F0E8F8031E04D138
:100240000A4B180000F070F80CE000F0DFF8030033
:10025000012B04D1064B180000F066F802E00020E4
:1002600000F062F8C046BD4680BDC046FF00FF00FA
:100270001111AAAA80B500AFC046BD4680BD80B5A9
:1002800000AFC046BD4680BD80B500AFC046BD468C
:1002900080BD80B500AFC046BD4680BD80B500AF13
:1002A000074B1A68064BC0218A431A60044B1A6830
:1002B000034B40210A431A60C046BD4680BDC0467C
:1002C0000004004880B582B000AF144B1B687D214C
:1002D0001800FFF719FF03001A001F231340012223
:1002E0009A4013007B600E4B1B687A68134006D15E
:1002F0000C4B1A680B4B08218A431A6005E0094B26
:100300001A68084B08210A431A60044B1B685A1CE0
:10031000024B1A60C046BD4602B080BD20000020DE
:100320001C0000201404004880B582B000AF786043
:10033000034B7A681A60C046BD4602B080BDC04615
:100340001C00002080B500AFC046BD4680BD000047
:1003500080B500AF0C4B1A680B4B0F218A431A6013
:10036000094A094B12681A60084B1A68074B0F219B
:100370008A431A60054B1A68044B05210A431A6028
:10038000C046BD4680BDC046000400480C0400487D
:1003900080B500AF194B1B680222134006D0184BE2
:1003A0001A68184B92000121D15005E0144B1A68CD
:1003B000144B92000021D150104B1B6808221340AF
:1003C00006D00F4B1A68104B92000121D15005E066
:1003D0000B4B1A680C4B92000021D150084B1B6844
:1003E000022B03D9064B00221A6004E0044B1B6861
:1003F0005A1C034B1A60C046BD4680BD100400481D
:1004000044000020240000203400002080B500AF0C
:10041000134B1B68012B0BD1114B5B68012B07D1D0
:100420000F4B9B68012B03D10D4BDB68012B01D0D7
:10043000012312E00A4B1B68002B0BD1084B5B68B1
:10044000002B07D1064B9B68012B03D1044BDB68C3
:10045000002B01D0002300E002231800BD4680BD20
:100460002400002080B582B000AF78603960396820
:100470007868FFF749FE03001A00134B013A1A602F
:1004800039687868FFF740FE03001A000E4B013A06
:100490001A600E4B05221A600C4B1A680B4B022196
:1004A0000A431A600A4B1A68094B0A490A401A6043
:1004B000074B1A68064BCC2109060A431A60C0464E
:1004C000BD4602B080BDC04614E000E010E000E090
:1004D00020ED00E0FFFFFFCC80B500AF0F4B1A68A6
:1004E0000E4BFC21C9030A431A60FA239B000C4AF5
:1004F00019001000FFF7B6FFFFF7BCFEFFF7BFFEC5
:10050000FFF7C2FEFFF7C5FEFFF7C8FEFFF71AFFB1
:10051000FFF71EFFC046BD4680BDC0461410024016
:1005200000127A0080B500AFFFF7CCFEFFF730FF76
:10053000C046BD4680BD00000D48854600E000BFB6
:100540000C480D490D4A002302E0D458C45004332E
:10055000C4188C42F9D30A4A0A4C002301E0136004
:100560000432A242FBD300F011F8FFF759FEFEE778
:10057000001800200000002000000020F405000802
:100580000000002048000020FEE7000070B50026B3
:100590000C4D0D4C641BA410A64209D1002600F09E
:1005A00019F80A4D0A4C641BA410A64205D170BD6F
:1005B000B300EB5898470136EEE7B300EB58984785
:1005C0000136F2E7EC050008EC050008EC05000830
:1005D000F0050008F8B5C046F8BC08BC9E46704758
:0C05E000F8B5C046F8BC08BC9E46704749
:0405EC00E90000081A
:0405F000C10000083E
:0400000508000539B1
:00000001FF
