:020000040800F2
:1000000000180020250A0008750A0008750A000873
:1000100000000000000000000000000000000000E0
:10002000000000000000000000000000750A000849
:100030000000000000000000750A0008D90900084F
:10004000750A0008750A0008750A0008750A000894
:10005000750A0008750A0008750A0008750A000884
:10006000750A0008750A0008000000000000000082
:10007000750A0008750A0008750A0008750A000864
:10008000750A0008750A0008750A0008750A000854
:10009000750A0008750A0008750A0008750A000844
:1000A000750A0008750A0008750A0008750A000834
:1000B00001060008750A0008750A0008750A00089C
:1000C00010B5064C2378002B07D1054B002B02D02E
:1000D000044800E000BF0123237010BD0000002091
:1000E00000000000C00A0008044B10B5002B03D02C
:1000F0000349044800E000BF10BDC04600000000F6
:1001000004000020C00A0008002243088B4274D378
:1001100003098B425FD3030A8B4244D3030B8B4208
:1001200028D3030C8B420DD3FF22090212BA030C11
:100130008B4202D31212090265D0030B8B4219D3F2
:1001400000E0090AC30B8B4201D3CB03C01A524112
:10015000830B8B4201D38B03C01A5241430B8B425A
:1001600001D34B03C01A5241030B8B4201D30B0343
:10017000C01A5241C30A8B4201D3CB02C01A52416A
:10018000830A8B4201D38B02C01A5241430A8B422D
:1001900001D34B02C01A5241030A8B4201D30B0216
:1001A000C01A5241CDD2C3098B4201D3CB01C01A30
:1001B000524183098B4201D38B01C01A524143093A
:1001C0008B4201D34B01C01A524103098B4201D328
:1001D0000B01C01A5241C3088B4201D3CB00C01A95
:1001E000524183088B4201D38B00C01A524143080D
:1001F0008B4201D34B00C01A5241411A00D2014632
:10020000524110467047FFE701B5002000F006F8A4
:1002100002BDC0460029F7D076E770477047C04658
:1002200080B500AF00F08AFB002000F08BF800F0F2
:1002300001F8FCE780B582B000AF002000F060FB61
:1002400003007B607B681022134002D0312000F055
:100250001DFA7B682022134002D0302000F016FAED
:100260007B684022134002D04C2000F00FFA7A68DD
:1002700080235B001340E0D0722000F007FADCE737
:1002800080B500AFC046BD4680BD80B500AFC0465A
:10029000BD4680BD80B500AFC046BD4680BD80B5BF
:1002A00000AFC046BD4680BD80B500AF094B1A689F
:1002B000084B09490A401A60084B9A60054B1A68B6
:1002C000044B40210A431A60044B9A60C046BD4665
:1002D00080BDC046000400483FFDFFFF68020020CB
:1002E00080B582B000AF144B1B687D211800FFF76A
:1002F0000BFF03001A001F23134001229A40130032
:100300007B600E4B1B687A68134005D10C4B1B6851
:100310000B4B00221A6005E0094B1A68084B0821B4
:100320000A431A60044B1B685A1C034B1A60C046F0
:10033000BD4602B080BDC046200000201C00002049
:100340001404004880B582B000AF7860034B7A682F
:100350001A60C046BD4602B080BDC0461C000020E9
:1003600080B500AF074B00221A60074B00221A60CD
:10037000064B00221A60064B00221A60C046BD469A
:1003800080BDC046280000202C0000203001002045
:100390003401002080B582B000AF0200FB1D1A704E
:1003A0000E4B1B680133FF221A400D4B1B689A420B
:1003B00002D101235B420DE0084B1B68094AF91D7D
:1003C0000978D154054B1B680133FF221A40034BB7
:1003D0001A6000231800BD4602B080BD280000202E
:1003E0002C0000203000002080B582B000AF0D4B03
:1003F0001A680D4B1B689A4202D101235B420CE044
:10040000084B1B68094AD35C7B60064B1B680133B1
:10041000FF221A40034B1A607B681800BD4602B0E9
:1004200080BDC0462C0000202800002030000020A5
:1004300080B582B000AF0200FB1D1A700E4B1B6826
:100440000133FF221A400D4B1B689A4202D101234F
:100450005B420DE0084B1B68094AF91D0978D1542D
:10046000054B1B680133FF221A40034B1A6000231F
:100470001800BD4602B080BD3001002034010020CC
:100480003801002090B583B000AF7860494B1A68FE
:10049000484B49490A401A60484B1A68474B46493D
:1004A0000A401A60464B1A68454B30218A431A604D
:1004B0009023DB051A689023DB053F490A401A6048
:1004C0009023DB051A689023DB053E490A431A6036
:1004D0003D4B1A683C4B3D490A401A603A4B1A683A
:1004E000394B802149000A431A60394B1A68384B4E
:1004F000120112091A60364B1A68354B80214905E2
:100500000A431A60334B1A68324B802189020A432E
:100510001A6000F00BFA02002F4CE1235902100080
:10052000FFF7F2FD030023602C4B842212041A60B3
:100530002A4B1A68294B0C210A431A60284B0022C7
:100540001A60284B00221A60274B00221A60274BA2
:1005500000221A60264B00221A60204B1A681F4B9B
:100560000C210A431A601D4B1A681C4B01210A43D7
:100570001A60204B1A681F4B802149050A431A60F4
:100580001D4B1A681C4BFF218A431A601A4A1A4BEA
:1005900012681A60114B1A68104B20210A431A6026
:1005A000FFF7DEFE154B00221A6000231800BD463F
:1005B00003B090BD08000048CFFFFF3F0C0000488B
:1005C000040000482000008020000048FFF0FFFFEA
:1005D000240000481C1002400C440040004400402D
:1005E00004440040084400401044004014440040CB
:1005F0001844004000E100E01CE400E0240000207A
:1006000080B582B000AF1B4B1B68202213400ED078
:10061000194B1B68DBB21800FFF70AFF0300FF2B22
:1006200005D9164B1B6801221A43144B1A60114B53
:100630001A68134B1B6813408022134010D0FFF739
:10064000D3FE03007B607B68FF2B03D80D4B7A68D9
:100650001A6005E00A4B1A68094B80218A431A6028
:10066000094B1A68084B0F210A431A60C046BD4661
:1006700002B080BD1C4400402444004024000020FF
:1006800000440040284400402044004080B582B02F
:1006900000AF78607B68DBB21800FFF77BFE0300D9
:1006A000013302D101235B4206E0054B1A68044B7B
:1006B00080210A431A607B681800BD4602B080BDE5
:1006C0000044004080B582B000AF214A204B126840
:1006D0001A601F4A1E4B12681A601E4B1A681D4B87
:1006E0000B218A431A601B4B1A681A4B01210A43DB
:1006F0001A60184B1A68174B2C218A431A60154B45
:100700001A68144B04210A431A6000237B6016E028
:10071000114B7A6892000021D150104B7A689200F8
:100720000021D1500E4B7A6892000021D1500D4B20
:100730007A6892000021D1507B6801337B607B682E
:10074000012BE5DDC046C046BD4602B080BDC046B7
:10075000000400480C040048400200204802002029
:10076000380200205002002080B500AF5D4B00220F
:100770001A60AEE05B4B1A685B4B9200D158594B44
:100780001A684900584B9200D150584B1A68554B83
:100790001B68012199400B0013400BD1514B1A6883
:1007A000514B9200D1584F4B1A6801314E4B920079
:1007B000D15009E04B4B19684A4B1A684A4B8900E3
:1007C000C958494B9200D150464B1A68464B92008B
:1007D000D3581B051B0D14D1424B1A68444B920091
:1007E000D358012B06D13F4B1A68414B9200202170
:1007F000D15069E03B4B1A683D4B92000021D1502B
:1008000062E0384B1A68384B9200D3581B051B0D19
:10081000384A934258D1334B1A68354B9200D3581B
:10082000012213400CD12F4B1A68314B920010213A
:10083000D1502C4B1A68304B92000021D15005E06A
:10084000284B1A682A4B92000121D150254B1B6876
:10085000294A99008A58511C274A9B009950214BDC
:100860001A68254B9200D258FA239B009A4205D170
:100870001C4B1A681E4B92004021D150194B1A682C
:100880001D4B9200D3581D4A934211D9154B1A683B
:10089000194B9200D358C8211800FFF7BBFC0B1E60
:1008A00006D1104B1A68124B920080214900D1509A
:1008B0000C4B1A680E4B9200D1580A4B1A68012350
:1008C00019430B4B9200D150064B1B685A1C054B29
:1008D0001A60044B1B68012B00D84BE7C046C0468A
:1008E000BD4680BD58020020380200201004004898
:1008F00040020020FF0F00005002002013050000FE
:1009000080B582B000AF7860034B7A689200D3580C
:100910001800BD4602B080BD4002002080B582B004
:1009200000AF7860C046BD4602B080BD80B500AF64
:10093000014B1800BD4680BD00127A0080B500AFA3
:100940000E4B1A680D4BFC21C9030A431A600020A4
:10095000FFF7E4FFFFF794FCFFF797FCFFF79AFC23
:10096000FFF79DFCFFF7A0FC0020FFF78BFDFFF7D2
:10097000A9FE00F005F8C046BD4680BD1410024037
:1009800080B500AF0F4B104A1A600E4B0E4A1A602A
:100990000E4B05221A600D4B1A680C4B02210A43BC
:1009A0001A600B4B1A680A4B0A490A401A60084B36
:1009B0001A68074BCC2109060A431A60C046BD4697
:1009C00080BDC04614E000E03F1F000010E000E0E2
:1009D00020ED00E0FFFFFFCC80B500AFFFF780FC0B
:1009E000FFF7C2FE0C4B1B685A1C0B4B1A600B4BDB
:1009F0001B68002B04D0094B1B685A1E074B1A605A
:100A0000074B1B68002B04D0054B1B685A1E044B78
:100A10001A60C046BD4680BD5C0200206002002016
:100A2000640200200D48854600E000BF0C480D49D7
:100A30000D4A002302E0D458C4500433C4188C4239
:100A4000F9D30A4A0A4C002301E013600432A2429F
:100A5000FBD300F011F8FFF7E3FBFEE700180020DE
:100A60000000002000000020E00A00080000002034
:100A700078020020FEE7000070B500260C4D0D4CFA
:100A8000641BA410A64209D1002600F019F80A4DF3
:100A90000A4C641BA410A64205D170BDB300EB58EC
:100AA00098470136EEE7B300EB5898470136F2E776
:100AB000D80A0008D80A0008D80A0008DC0A00088A
:100AC000F8B5C046F8BC08BC9E467047F8B5C046AD
:080AD000F8BC08BC9E4670470B
:040AD800E900000829
:040ADC00C10000084D
:0400000508000A25C0
:00000001FF
