:020000040800F2
:100000000018002075070008C5070008C50700088C
:1000100000000000000000000000000000000000E0
:10002000000000000000000000000000C5070008FC
:100030000000000000000000C5070008AD06000831
:10004000C5070008C5070008C5070008C507000860
:10005000C5070008C5070008C5070008C507000850
:10006000C5070008C50700080000000000000000E8
:10007000C5070008C5070008C5070008C507000830
:10008000C5070008C5070008C5070008C507000820
:10009000C5070008C5070008C5070008C507000810
:1000A000C5070008C5070008C5070008C507000800
:1000B000C5070008C5070008C5070008C5070008F0
:1000C00010B5064C2378002B07D1054B002B02D02E
:1000D000044800E000BF0123237010BD040000208D
:1000E0000000000010080008044B10B5002B03D0DE
:1000F0000349044800E000BF10BDC04600000000F6
:100100000800002010080008002243088B4274D326
:1001100003098B425FD3030A8B4244D3030B8B4208
:1001200028D3030C8B420DD3FF22090212BA030C11
:100130008B4202D31212090265D0030B8B4219D3F2
:1001400000E0090AC30B8B4201D3CB03C01A524112
:10015000830B8B4201D38B03C01A5241430B8B425A
:1001600001D34B03C01A5241030B8B4201D30B0343
:10017000C01A5241C30A8B4201D3CB02C01A52416A
:10018000830A8B4201D38B02C01A5241430A8B422D
:1001900001D34B02C01A5241030A8B4201D30B0216
:1001A000C01A5241CDD2C3098B4201D3CB01C01A30
:1001B000524183098B4201D38B01C01A524143093A
:1001C0008B4201D34B01C01A524103098B4201D328
:1001D0000B01C01A5241C3088B4201D3CB00C01A95
:1001E000524183088B4201D38B00C01A524143080D
:1001F0008B4201D34B00C01A5241411A00D2014632
:10020000524110467047FFE701B5002000F006F8A4
:1002100002BDC0460029F7D076E770477047C04658
:1002200080B500AF00F01CFA002000F0C7F800F025
:10023000C9F90200174B1A6000F0CEF90200164B04
:100240001A6000F0B5F90200144B1A6000F0A6F92C
:100250000200134B1A60124B1B68002B02D0114B8B
:1002600001221A600E4B1B68002B0FD1094B1B6833
:10027000002B0BD1094B1B68002B07D10A4B19002F
:10028000012000F055FA074B00221A6000F00EF82A
:10029000CDE7C046200000202400002028000020D8
:1002A0002C00002000000020B80B000080B500AF3B
:1002B000012000F021FA0200084B1A60074B1B686E
:1002C000002B05D001235B42180000F077F802E014
:1002D000002000F073F8C046BD4680BD300000200D
:1002E00080B500AFC046BD4680BD80B500AFC046FA
:1002F000BD4680BD80B500AFC046BD4680BD80B55F
:1003000000AFC046BD4680BD80B500AF0F4B1A6838
:100310000E4BC0218A431A600C4B1A680B4B80218C
:100320000A431A60094B1A68084B09490A401A60C7
:10033000084B9A60054B1A68044B40210A431A6027
:10034000044B9A60C046BD4680BDC04600040048CC
:100350003FFDFFFF6800002080B582B000AF144B66
:100360001B687D211800FFF7CFFE03001A001F2332
:10037000134001229A4013007B600E4B1B687A6881
:10038000134005D10C4B1B680B4B00221A6005E093
:10039000094B1A68084B08210A431A60044B1B6872
:1003A0005A1C034B1A60C046BD4602B080BDC04611
:1003B00038000020340000201404004880B582B0CA
:1003C00000AF7860034B7A681A60C046BD4602B041
:1003D00080BDC0463400002080B500AFC046BD4699
:1003E00080BD000080B500AF1D4A1D4B12681A6029
:1003F0001B4A1B4B12681A601A4B1A68194B0B21C7
:100400008A431A60174B1A68164B01210A431A6077
:10041000144B1A68134B2C218A431A60114B1A682B
:10042000104B04210A431A600F4B00221A600F4B35
:1004300000221A600E4B01221A600E4B01221A6034
:100440000D4B00221A600D4B00221A600C4B00224B
:100450001A600C4B00221A60C046BD4680BDC046E3
:10046000000400480C0400483C000020400000202C
:1004700044000020480000204C00002050000020D4
:10048000540000205800002080B500AF3B4B1B6893
:100490005A003A4B1A603A4B1B680222134004D0B0
:1004A000364B1A68354B1A6004E0344B1B685A1CF3
:1004B000324B1A60334B1B685A00324B1A60304B78
:1004C0001B680122134004D02E4B1A682D4B1A6072
:1004D00004E02C4B1B685A1C2A4B1A60274B1B68E4
:1004E0001B051B0D03D1284B01221A6009E0234B89
:1004F0001B681B051B0D254A934202D1224B00228B
:100500001A60204B1B681B051B0D03D1204B0122D9
:100510001A6009E01B4B1B681B051B0D1B4A93420D
:1005200002D11B4B00221A60144B1B68202213407F
:1005300003D0184B20221A600EE0104B1B681022CB
:10054000134006D00D4B1B6810221A40114B1A6045
:1005500002E0104B00221A60084B1A6880235B00EF
:10056000134004D00C4B802252001A6002E00A4B68
:1005700000221A60C046BD4680BDC0463C00002037
:10058000100400484000002044000020FF0F00003D
:10059000480000204C0000205400002080B500AF2F
:1005A000024B1B681800BD4680BDC04654000020A9
:1005B00080B500AF024B1B681800BD4680BDC04629
:1005C0004C00002080B500AF024B1B681800BD46F0
:1005D00080BDC0464400002080B500AF024B1B68C0
:1005E0001800BD4680BDC0464800002080B582B0DE
:1005F00000AF7860396039687868FFF785FD0300DF
:100600001A00134B013A1A6039687868FFF77CFDCD
:1006100003001A000E4B013A1A600E4B05221A60B5
:100620000C4B1A680B4B02210A431A600A4B1A68DA
:10063000094B0A490A401A60074B1A68064BCC213D
:1006400009060A431A60C046BD4602B080BDC046D6
:1006500014E000E010E000E020ED00E0FFFFFFCC40
:1006600080B500AF0F4B1A680E4BFC21C9030A433B
:100670001A60FA239B000C4A19001000FFF7B6FF1E
:10068000FFF72EFEFFF731FEFFF734FEFFF737FED0
:10069000FFF73AFEFFF7A0FEFFF7A4FEC046BD46F7
:1006A00080BDC0461410024000127A0080B500AF31
:1006B000FFF752FEFFF7E8FE0C4B1B685A1C0B4B72
:1006C0001A600B4B1B68002B04D0094B1B685A1E89
:1006D000074B1A60074B1B68002B04D0054B1B68A7
:1006E0005A1E044B1A60C046BD4680BD5C00002007
:1006F000600000206400002080B582B000AF786008
:100700007B68012B03D07B68022B03D005E0064BEE
:100710001B6804E0054B1B6801E001235B421800E5
:10072000BD4602B080BDC0466000002064000020CD
:1007300080B582B000AF786039607B68012B03D050
:100740007B68022B04D007E0084B3A681A6007E088
:10075000074B3A681A6003E001235B423B60C046E6
:100760003B681800BD4602B080BDC0466000002056
:10077000640000200D48854600E000BF0C480D498C
:100780000D4A002302E0D458C4500433C4188C42EC
:10079000F9D30A4A0A4C002301E013600432A24252
:1007A000FBD300F011F8FFF73BFDFEE70018002037
:1007B0000000002004000020300800080400002091
:1007C00078000020FEE7000070B500260C4D0D4CAF
:1007D000641BA410A64209D1002600F019F80A4DA6
:1007E0000A4C641BA410A64205D170BDB300EB589F
:1007F00098470136EEE7B300EB5898470136F2E729
:100800002808000828080008280800082C08000804
:10081000F8B5C046F8BC08BC9E467047F8B5C0465F
:08082000F8BC08BC9E467047BD
:04082800E9000008DB
:04082C00C1000008FF
:0408300001000000C3
:040000050800077573
:00000001FF
